{
  "contractName": "Faucet",
  "abi": [
    {
      "inputs": [],
      "name": "numOfFunders",
      "outputs": [
        {
          "internalType": "uint256",
          "name": "",
          "type": "uint256"
        }
      ],
      "stateMutability": "view",
      "type": "function"
    },
    {
      "inputs": [],
      "name": "owner",
      "outputs": [
        {
          "internalType": "address",
          "name": "",
          "type": "address"
        }
      ],
      "stateMutability": "view",
      "type": "function"
    },
    {
      "inputs": [],
      "name": "test3",
      "outputs": [
        {
          "internalType": "uint256",
          "name": "",
          "type": "uint256"
        }
      ],
      "stateMutability": "pure",
      "type": "function"
    },
    {
      "inputs": [],
      "name": "testNum",
      "outputs": [
        {
          "internalType": "uint256",
          "name": "",
          "type": "uint256"
        }
      ],
      "stateMutability": "view",
      "type": "function"
    },
    {
      "stateMutability": "payable",
      "type": "receive"
    },
    {
      "inputs": [],
      "name": "emitLog",
      "outputs": [
        {
          "internalType": "bytes32",
          "name": "",
          "type": "bytes32"
        }
      ],
      "stateMutability": "pure",
      "type": "function"
    },
    {
      "inputs": [],
      "name": "addFunds",
      "outputs": [],
      "stateMutability": "payable",
      "type": "function"
    },
    {
      "inputs": [],
      "name": "test1",
      "outputs": [],
      "stateMutability": "nonpayable",
      "type": "function"
    },
    {
      "inputs": [],
      "name": "test2",
      "outputs": [],
      "stateMutability": "nonpayable",
      "type": "function"
    },
    {
      "inputs": [
        {
          "internalType": "uint256",
          "name": "withdrawAmount",
          "type": "uint256"
        }
      ],
      "name": "withdraw",
      "outputs": [],
      "stateMutability": "nonpayable",
      "type": "function"
    },
    {
      "inputs": [],
      "name": "getAllFunders",
      "outputs": [
        {
          "internalType": "address[]",
          "name": "",
          "type": "address[]"
        }
      ],
      "stateMutability": "view",
      "type": "function"
    },
    {
      "inputs": [
        {
          "internalType": "uint8",
          "name": "index",
          "type": "uint8"
        }
      ],
      "name": "getFunderAtIndex",
      "outputs": [
        {
          "internalType": "address",
          "name": "",
          "type": "address"
        }
      ],
      "stateMutability": "view",
      "type": "function"
    }
  ],
  "bytecode": "0x608060405234801561001057600080fd5b50336000806101000a81548173ffffffffffffffffffffffffffffffffffffffff021916908373ffffffffffffffffffffffffffffffffffffffff1602179055506103e8600181905550610b67806100696000396000f3fe6080604052600436106100a05760003560e01c80636fbbb55d116100645780636fbbb55d1461016b5780638da5cb5b14610196578063a26759cb146101c1578063ae28f1ed146101cb578063af7f2c9b146101f6578063f42c13bf14610221576100a7565b80630a8e8e01146100ac5780630a93cf33146100d75780632e1a7d4d1461011457806366e41cb71461013d5780636b59084d14610154576100a7565b366100a757005b600080fd5b3480156100b857600080fd5b506100c161024c565b6040516100ce91906106d7565b60405180910390f35b3480156100e357600080fd5b506100fe60048036038101906100f99190610730565b610255565b60405161010b919061079e565b60405180910390f35b34801561012057600080fd5b5061013b600480360381019061013691906107e5565b610295565b005b34801561014957600080fd5b5061015261032c565b005b34801561016057600080fd5b506101696103bc565b005b34801561017757600080fd5b5061018061044c565b60405161018d91906108d0565b60405180910390f35b3480156101a257600080fd5b506101ab610546565b6040516101b8919061079e565b60405180910390f35b6101c961056a565b005b3480156101d757600080fd5b506101e061068a565b6040516101ed91906106d7565b60405180910390f35b34801561020257600080fd5b5061020b610690565b60405161021891906106d7565b60405180910390f35b34801561022d57600080fd5b50610236610696565b604051610243919061090b565b60405180910390f35b60006064905090565b6000600460008360ff16815260200190815260200160002060009054906101000a900473ffffffffffffffffffffffffffffffffffffffff169050919050565b8067016345785d8a00008111156102e1576040517f08c379a00000000000000000000000000000000000000000000000000000000081526004016102d8906109a9565b60405180910390fd5b3373ffffffffffffffffffffffffffffffffffffffff166108fc839081150290604051600060405180830381858888f19350505050158015610327573d6000803e3d6000fd5b505050565b60008054906101000a900473ffffffffffffffffffffffffffffffffffffffff1673ffffffffffffffffffffffffffffffffffffffff163373ffffffffffffffffffffffffffffffffffffffff16146103ba576040517f08c379a00000000000000000000000000000000000000000000000000000000081526004016103b190610a3b565b60405180910390fd5b565b60008054906101000a900473ffffffffffffffffffffffffffffffffffffffff1673ffffffffffffffffffffffffffffffffffffffff163373ffffffffffffffffffffffffffffffffffffffff161461044a576040517f08c379a000000000000000000000000000000000000000000000000000000000815260040161044190610a3b565b60405180910390fd5b565b6060600060025467ffffffffffffffff81111561046c5761046b610a5b565b5b60405190808252806020026020018201604052801561049a5781602001602082028036833780820191505090505b50905060005b60025481101561053e576004600082815260200190815260200160002060009054906101000a900473ffffffffffffffffffffffffffffffffffffffff168282815181106104f1576104f0610a8a565b5b602002602001019073ffffffffffffffffffffffffffffffffffffffff16908173ffffffffffffffffffffffffffffffffffffffff1681525050808061053690610ae8565b9150506104a0565b508091505090565b60008054906101000a900473ffffffffffffffffffffffffffffffffffffffff1681565b6000339050600360008273ffffffffffffffffffffffffffffffffffffffff1673ffffffffffffffffffffffffffffffffffffffff16815260200190815260200160002060009054906101000a900460ff16610687576000600260008154809291906105d590610ae8565b9190505590506001600360008473ffffffffffffffffffffffffffffffffffffffff1673ffffffffffffffffffffffffffffffffffffffff16815260200190815260200160002060006101000a81548160ff021916908315150217905550816004600083815260200190815260200160002060006101000a81548173ffffffffffffffffffffffffffffffffffffffff021916908373ffffffffffffffffffffffffffffffffffffffff160217905550505b50565b60015481565b60025481565b60007f48656c6c6f20576f726c64000000000000000000000000000000000000000000905090565b6000819050919050565b6106d1816106be565b82525050565b60006020820190506106ec60008301846106c8565b92915050565b600080fd5b600060ff82169050919050565b61070d816106f7565b811461071857600080fd5b50565b60008135905061072a81610704565b92915050565b600060208284031215610746576107456106f2565b5b60006107548482850161071b565b91505092915050565b600073ffffffffffffffffffffffffffffffffffffffff82169050919050565b60006107888261075d565b9050919050565b6107988161077d565b82525050565b60006020820190506107b3600083018461078f565b92915050565b6107c2816106be565b81146107cd57600080fd5b50565b6000813590506107df816107b9565b92915050565b6000602082840312156107fb576107fa6106f2565b5b6000610809848285016107d0565b91505092915050565b600081519050919050565b600082825260208201905092915050565b6000819050602082019050919050565b6108478161077d565b82525050565b6000610859838361083e565b60208301905092915050565b6000602082019050919050565b600061087d82610812565b610887818561081d565b93506108928361082e565b8060005b838110156108c35781516108aa888261084d565b97506108b583610865565b925050600181019050610896565b5085935050505092915050565b600060208201905081810360008301526108ea8184610872565b905092915050565b6000819050919050565b610905816108f2565b82525050565b600060208201905061092060008301846108fc565b92915050565b600082825260208201905092915050565b7f43616e6e6f74207769746864726177206d6f7265207468616e20302e3120455460008201527f4800000000000000000000000000000000000000000000000000000000000000602082015250565b6000610993602183610926565b915061099e82610937565b604082019050919050565b600060208201905081810360008301526109c281610986565b9050919050565b7f4f6e6c79206f776e65722063616e2063616c6c20746869732066756e6374696f60008201527f6e2e000000000000000000000000000000000000000000000000000000000000602082015250565b6000610a25602283610926565b9150610a30826109c9565b604082019050919050565b60006020820190508181036000830152610a5481610a18565b9050919050565b7f4e487b7100000000000000000000000000000000000000000000000000000000600052604160045260246000fd5b7f4e487b7100000000000000000000000000000000000000000000000000000000600052603260045260246000fd5b7f4e487b7100000000000000000000000000000000000000000000000000000000600052601160045260246000fd5b6000610af3826106be565b91507fffffffffffffffffffffffffffffffffffffffffffffffffffffffffffffffff821415610b2657610b25610ab9565b5b60018201905091905056fea26469706673582212200a3a1e22287c68ef395bb7d20e5243479e32a5da8c2252eb074f34640670c1e864736f6c634300080b0033",
  "immutableReferences": {},
  "source": "// SPDX-License-Identifier: MIT\npragma solidity >=0.4.22 <0.9.0;\n\nimport \"./Owned.sol\";\nimport \"./Logger.sol\";\nimport \"./IFaucet.sol\";\n\ncontract Faucet is Owned, Logger, IFaucet {\n  uint public numOfFunders;\n\n  mapping(address => bool) private funders;\n  mapping(uint => address) private lutFunders;\n\n  modifier limitWithdraw(uint withdrawAmount) {\n    require(withdrawAmount <= 100000000000000000,\n    \"Cannot withdraw more than 0.1 ETH\"\n    );\n    _;\n  }\n\n  receive() external payable {}\n\n  function emitLog() public override pure returns(bytes32){\n    return \"Hello World\";\n  }\n\n  function addFunds() override external payable {\n    address funder = msg.sender;\n    if(!funders[funder]){\n      uint index = numOfFunders++;\n      funders[funder] = true;\n      lutFunders[index] = funder;\n    }\n  }\n\n  function test1() external onlyOwner {\n  }\n\n  function test2() external onlyOwner {\n  }\n\n  function withdraw(uint withdrawAmount) override external limitWithdraw(withdrawAmount) {\n    payable(msg.sender).transfer(withdrawAmount);\n  }\n\n  function getAllFunders() external view returns (address[] memory) {\n    address[] memory _funders = new address[](numOfFunders);\n    for (uint i = 0 ; i < numOfFunders ; i++) {\n      _funders[i] = lutFunders[i];\n    }\n    return _funders;\n  }\n\n  function getFunderAtIndex(uint8 index) external view returns(address) {\n    return lutFunders[index];\n  }\n}\n\n// const instance = await Faucet.deployed();\n\n// instance.addFunds({from: accounts[0], value: \"2000000000000000000\"});\n// instance.addFunds({from: accounts[1], value: \"2000000000000000000\"});\n\n// instance.withdraw(\"100000000000000000\", {from: accounts[0]});\n\n// instance.getFunderAtIndex(0);\n// instance.getAllFunders();\n",
  "sourcePath": "/Users/matanshaviro/Documents/web3.0/faucet/contracts/FaucetContract.sol",
  "compiler": {
    "name": "solc",
    "version": "0.8.11+commit.d7f03943.Emscripten.clang"
  },
  "schemaVersion": "3.4.4",
  "updatedAt": "2022-05-24T11:39:59.916Z",
  "devdoc": {
    "kind": "dev",
    "methods": {},
    "version": 1
  },
  "userdoc": {
    "kind": "user",
    "methods": {},
    "version": 1
  }
}